{
	"TransientStorage.sol": {
		"TestTransientStorage": {
			"abi": [
				{
					"inputs": [],
					"name": "test",
					"outputs": [],
					"stateMutability": "nonpayable",
					"type": "function"
				},
				{
					"inputs": [],
					"name": "val",
					"outputs": [
						{
							"internalType": "uint256",
							"name": "v",
							"type": "uint256"
						}
					],
					"stateMutability": "view",
					"type": "function"
				}
			],
			"devdoc": {
				"kind": "dev",
				"methods": {},
				"version": 1
			},
			"evm": {
				"assembly": "    /* \"TransientStorage.sol\":883:1339  contract TestTransientStorage {... */\n  mstore(0x40, 0x80)\n  callvalue\n  dup1\n  iszero\n  tag_1\n  jumpi\n  0x00\n  dup1\n  revert\ntag_1:\n  pop\n  dataSize(sub_0)\n  dup1\n  dataOffset(sub_0)\n  0x00\n  codecopy\n  0x00\n  return\nstop\n\nsub_0: assembly {\n        /* \"TransientStorage.sol\":883:1339  contract TestTransientStorage {... */\n      mstore(0x40, 0x80)\n      callvalue\n      dup1\n      iszero\n      tag_1\n      jumpi\n      0x00\n      dup1\n      revert\n    tag_1:\n      pop\n      jumpi(tag_2, lt(calldatasize, 0x04))\n      shr(0xe0, calldataload(0x00))\n      dup1\n      0x3c6bb436\n      eq\n      tag_3\n      jumpi\n      dup1\n      0xf8a8fd6d\n      eq\n      tag_4\n      jumpi\n    tag_2:\n      0x00\n      dup1\n      revert\n        /* \"TransientStorage.sol\":1220:1336  function val() public view returns (uint256 v) {... */\n    tag_3:\n      tag_5\n      tag_6\n      jump\t// in\n    tag_5:\n      mload(0x40)\n      tag_7\n      swap2\n      swap1\n      tag_8\n      jump\t// in\n    tag_7:\n      mload(0x40)\n      dup1\n      swap2\n      sub\n      swap1\n      return\n        /* \"TransientStorage.sol\":954:1212  function test() public {... */\n    tag_4:\n      tag_9\n      tag_10\n      jump\t// in\n    tag_9:\n      stop\n        /* \"TransientStorage.sol\":1220:1336  function val() public view returns (uint256 v) {... */\n    tag_6:\n        /* \"TransientStorage.sol\":1256:1265  uint256 v */\n      0x00\n        /* \"TransientStorage.sol\":1313:1317  SLOT */\n      dup1\n        /* \"TransientStorage.sol\":1307:1318  sload(SLOT) */\n      sload\n        /* \"TransientStorage.sol\":1302:1318  v := sload(SLOT) */\n      swap1\n      pop\n        /* \"TransientStorage.sol\":1220:1336  function val() public view returns (uint256 v) {... */\n      swap1\n      jump\t// out\n        /* \"TransientStorage.sol\":954:1212  function test() public {... */\n    tag_10:\n        /* \"TransientStorage.sol\":1026:1029  321 */\n      0x0141\n        /* \"TransientStorage.sol\":1020:1024  SLOT */\n      0x00\n        /* \"TransientStorage.sol\":1012:1030  sstore (SLOT, 321) */\n      sstore\n        /* \"TransientStorage.sol\":1062:1074  bool success */\n      0x00\n        /* \"TransientStorage.sol\":1079:1089  msg.sender */\n      caller\n        /* \"TransientStorage.sol\":1079:1094  msg.sender.call */\n      0xffffffffffffffffffffffffffffffffffffffff\n      and\n        /* \"TransientStorage.sol\":1079:1098  msg.sender.call(\"\") */\n      mload(0x40)\n      tag_13\n      swap1\n      tag_14\n      jump\t// in\n    tag_13:\n      0x00\n      mload(0x40)\n      dup1\n      dup4\n      sub\n      dup2\n      0x00\n      dup7\n      gas\n      call\n      swap2\n      pop\n      pop\n      returndatasize\n      dup1\n      0x00\n      dup2\n      eq\n      tag_17\n      jumpi\n      mload(0x40)\n      swap2\n      pop\n      and(add(returndatasize, 0x3f), not(0x1f))\n      dup3\n      add\n      0x40\n      mstore\n      returndatasize\n      dup3\n      mstore\n      returndatasize\n      0x00\n      0x20\n      dup5\n      add\n      returndatacopy\n      jump(tag_16)\n    tag_17:\n      0x60\n      swap2\n      pop\n    tag_16:\n      pop\n        /* \"TransientStorage.sol\":1061:1098  (bool success,) = msg.sender.call(\"\") */\n      pop\n      swap1\n      pop\n        /* \"TransientStorage.sol\":1117:1124  success */\n      dup1\n        /* \"TransientStorage.sol\":1109:1140  require(success, \"Call failed\") */\n      tag_18\n      jumpi\n      mload(0x40)\n      0x08c379a000000000000000000000000000000000000000000000000000000000\n      dup2\n      mstore\n      0x04\n      add\n      tag_19\n      swap1\n      tag_20\n      jump\t// in\n    tag_19:\n      mload(0x40)\n      dup1\n      swap2\n      sub\n      swap1\n      revert\n    tag_18:\n        /* \"TransientStorage.sol\":1191:1192  0 */\n      0x00\n        /* \"TransientStorage.sol\":1185:1189  SLOT */\n      dup1\n        /* \"TransientStorage.sol\":1177:1193  sstore (SLOT, 0) */\n      sstore\n        /* \"TransientStorage.sol\":1162:1205  {... */\n      pop\n        /* \"TransientStorage.sol\":954:1212  function test() public {... */\n      jump\t// out\n        /* \"#utility.yul\":7:84   */\n    tag_21:\n        /* \"#utility.yul\":44:51   */\n      0x00\n        /* \"#utility.yul\":73:78   */\n      dup2\n        /* \"#utility.yul\":62:78   */\n      swap1\n      pop\n        /* \"#utility.yul\":7:84   */\n      swap2\n      swap1\n      pop\n      jump\t// out\n        /* \"#utility.yul\":90:208   */\n    tag_22:\n        /* \"#utility.yul\":177:201   */\n      tag_32\n        /* \"#utility.yul\":195:200   */\n      dup2\n        /* \"#utility.yul\":177:201   */\n      tag_21\n      jump\t// in\n    tag_32:\n        /* \"#utility.yul\":172:175   */\n      dup3\n        /* \"#utility.yul\":165:202   */\n      mstore\n        /* \"#utility.yul\":90:208   */\n      pop\n      pop\n      jump\t// out\n        /* \"#utility.yul\":214:436   */\n    tag_8:\n        /* \"#utility.yul\":307:311   */\n      0x00\n        /* \"#utility.yul\":345:347   */\n      0x20\n        /* \"#utility.yul\":334:343   */\n      dup3\n        /* \"#utility.yul\":330:348   */\n      add\n        /* \"#utility.yul\":322:348   */\n      swap1\n      pop\n        /* \"#utility.yul\":358:429   */\n      tag_34\n        /* \"#utility.yul\":426:427   */\n      0x00\n        /* \"#utility.yul\":415:424   */\n      dup4\n        /* \"#utility.yul\":411:428   */\n      add\n        /* \"#utility.yul\":402:408   */\n      dup5\n        /* \"#utility.yul\":358:429   */\n      tag_22\n      jump\t// in\n    tag_34:\n        /* \"#utility.yul\":214:436   */\n      swap3\n      swap2\n      pop\n      pop\n      jump\t// out\n        /* \"#utility.yul\":442:589   */\n    tag_23:\n        /* \"#utility.yul\":543:554   */\n      0x00\n        /* \"#utility.yul\":580:583   */\n      dup2\n        /* \"#utility.yul\":565:583   */\n      swap1\n      pop\n        /* \"#utility.yul\":442:589   */\n      swap3\n      swap2\n      pop\n      pop\n      jump\t// out\n        /* \"#utility.yul\":595:709   */\n    tag_24:\n      pop\n      jump\t// out\n        /* \"#utility.yul\":715:1113   */\n    tag_25:\n        /* \"#utility.yul\":874:877   */\n      0x00\n        /* \"#utility.yul\":895:978   */\n      tag_38\n        /* \"#utility.yul\":976:977   */\n      0x00\n        /* \"#utility.yul\":971:974   */\n      dup4\n        /* \"#utility.yul\":895:978   */\n      tag_23\n      jump\t// in\n    tag_38:\n        /* \"#utility.yul\":888:978   */\n      swap2\n      pop\n        /* \"#utility.yul\":987:1080   */\n      tag_39\n        /* \"#utility.yul\":1076:1079   */\n      dup3\n        /* \"#utility.yul\":987:1080   */\n      tag_24\n      jump\t// in\n    tag_39:\n        /* \"#utility.yul\":1105:1106   */\n      0x00\n        /* \"#utility.yul\":1100:1103   */\n      dup3\n        /* \"#utility.yul\":1096:1107   */\n      add\n        /* \"#utility.yul\":1089:1107   */\n      swap1\n      pop\n        /* \"#utility.yul\":715:1113   */\n      swap2\n      swap1\n      pop\n      jump\t// out\n        /* \"#utility.yul\":1119:1498   */\n    tag_14:\n        /* \"#utility.yul\":1303:1306   */\n      0x00\n        /* \"#utility.yul\":1325:1472   */\n      tag_41\n        /* \"#utility.yul\":1468:1471   */\n      dup3\n        /* \"#utility.yul\":1325:1472   */\n      tag_25\n      jump\t// in\n    tag_41:\n        /* \"#utility.yul\":1318:1472   */\n      swap2\n      pop\n        /* \"#utility.yul\":1489:1492   */\n      dup2\n        /* \"#utility.yul\":1482:1492   */\n      swap1\n      pop\n        /* \"#utility.yul\":1119:1498   */\n      swap2\n      swap1\n      pop\n      jump\t// out\n        /* \"#utility.yul\":1504:1673   */\n    tag_26:\n        /* \"#utility.yul\":1588:1599   */\n      0x00\n        /* \"#utility.yul\":1622:1628   */\n      dup3\n        /* \"#utility.yul\":1617:1620   */\n      dup3\n        /* \"#utility.yul\":1610:1629   */\n      mstore\n        /* \"#utility.yul\":1662:1666   */\n      0x20\n        /* \"#utility.yul\":1657:1660   */\n      dup3\n        /* \"#utility.yul\":1653:1667   */\n      add\n        /* \"#utility.yul\":1638:1667   */\n      swap1\n      pop\n        /* \"#utility.yul\":1504:1673   */\n      swap3\n      swap2\n      pop\n      pop\n      jump\t// out\n        /* \"#utility.yul\":1679:1840   */\n    tag_27:\n        /* \"#utility.yul\":1819:1832   */\n      0x43616c6c206661696c6564000000000000000000000000000000000000000000\n        /* \"#utility.yul\":1815:1816   */\n      0x00\n        /* \"#utility.yul\":1807:1813   */\n      dup3\n        /* \"#utility.yul\":1803:1817   */\n      add\n        /* \"#utility.yul\":1796:1833   */\n      mstore\n        /* \"#utility.yul\":1679:1840   */\n      pop\n      jump\t// out\n        /* \"#utility.yul\":1846:2212   */\n    tag_28:\n        /* \"#utility.yul\":1988:1991   */\n      0x00\n        /* \"#utility.yul\":2009:2076   */\n      tag_45\n        /* \"#utility.yul\":2073:2075   */\n      0x0b\n        /* \"#utility.yul\":2068:2071   */\n      dup4\n        /* \"#utility.yul\":2009:2076   */\n      tag_26\n      jump\t// in\n    tag_45:\n        /* \"#utility.yul\":2002:2076   */\n      swap2\n      pop\n        /* \"#utility.yul\":2085:2178   */\n      tag_46\n        /* \"#utility.yul\":2174:2177   */\n      dup3\n        /* \"#utility.yul\":2085:2178   */\n      tag_27\n      jump\t// in\n    tag_46:\n        /* \"#utility.yul\":2203:2205   */\n      0x20\n        /* \"#utility.yul\":2198:2201   */\n      dup3\n        /* \"#utility.yul\":2194:2206   */\n      add\n        /* \"#utility.yul\":2187:2206   */\n      swap1\n      pop\n        /* \"#utility.yul\":1846:2212   */\n      swap2\n      swap1\n      pop\n      jump\t// out\n        /* \"#utility.yul\":2218:2637   */\n    tag_20:\n        /* \"#utility.yul\":2384:2388   */\n      0x00\n        /* \"#utility.yul\":2422:2424   */\n      0x20\n        /* \"#utility.yul\":2411:2420   */\n      dup3\n        /* \"#utility.yul\":2407:2425   */\n      add\n        /* \"#utility.yul\":2399:2425   */\n      swap1\n      pop\n        /* \"#utility.yul\":2471:2480   */\n      dup2\n        /* \"#utility.yul\":2465:2469   */\n      dup2\n        /* \"#utility.yul\":2461:2481   */\n      sub\n        /* \"#utility.yul\":2457:2458   */\n      0x00\n        /* \"#utility.yul\":2446:2455   */\n      dup4\n        /* \"#utility.yul\":2442:2459   */\n      add\n        /* \"#utility.yul\":2435:2482   */\n      mstore\n        /* \"#utility.yul\":2499:2630   */\n      tag_48\n        /* \"#utility.yul\":2625:2629   */\n      dup2\n        /* \"#utility.yul\":2499:2630   */\n      tag_28\n      jump\t// in\n    tag_48:\n        /* \"#utility.yul\":2491:2630   */\n      swap1\n      pop\n        /* \"#utility.yul\":2218:2637   */\n      swap2\n      swap1\n      pop\n      jump\t// out\n\n    auxdata: 0xa2646970667358221220491c4b47ce61a4dcd4cb9ebff0eee40a77447138422f5e81475ff2d72c0d677264736f6c634300081e0033\n}\n",
				"bytecode": {
					"linkReferences": {},
					"object": "6080604052348015600f57600080fd5b506102518061001f6000396000f3fe608060405234801561001057600080fd5b50600436106100365760003560e01c80633c6bb4361461003b578063f8a8fd6d14610059575b600080fd5b610043610063565b604051610050919061013d565b60405180910390f35b61006161006c565b005b60008054905090565b61014160005560003373ffffffffffffffffffffffffffffffffffffffff1660405161009790610189565b6000604051808303816000865af19150503d80600081146100d4576040519150601f19603f3d011682016040523d82523d6000602084013e6100d9565b606091505b505090508061011d576040517f08c379a0000000000000000000000000000000000000000000000000000000008152600401610114906101fb565b60405180910390fd5b6000805550565b6000819050919050565b61013781610124565b82525050565b6000602082019050610152600083018461012e565b92915050565b600081905092915050565b50565b6000610173600083610158565b915061017e82610163565b600082019050919050565b600061019482610166565b9150819050919050565b600082825260208201905092915050565b7f43616c6c206661696c6564000000000000000000000000000000000000000000600082015250565b60006101e5600b8361019e565b91506101f0826101af565b602082019050919050565b60006020820190508181036000830152610214816101d8565b905091905056fea2646970667358221220491c4b47ce61a4dcd4cb9ebff0eee40a77447138422f5e81475ff2d72c0d677264736f6c634300081e0033",
					"opcodes": "PUSH1 0x80 PUSH1 0x40 MSTORE CALLVALUE DUP1 ISZERO PUSH1 0xF JUMPI PUSH1 0x0 DUP1 REVERT JUMPDEST POP PUSH2 0x251 DUP1 PUSH2 0x1F PUSH1 0x0 CODECOPY PUSH1 0x0 RETURN INVALID PUSH1 0x80 PUSH1 0x40 MSTORE CALLVALUE DUP1 ISZERO PUSH2 0x10 JUMPI PUSH1 0x0 DUP1 REVERT JUMPDEST POP PUSH1 0x4 CALLDATASIZE LT PUSH2 0x36 JUMPI PUSH1 0x0 CALLDATALOAD PUSH1 0xE0 SHR DUP1 PUSH4 0x3C6BB436 EQ PUSH2 0x3B JUMPI DUP1 PUSH4 0xF8A8FD6D EQ PUSH2 0x59 JUMPI JUMPDEST PUSH1 0x0 DUP1 REVERT JUMPDEST PUSH2 0x43 PUSH2 0x63 JUMP JUMPDEST PUSH1 0x40 MLOAD PUSH2 0x50 SWAP2 SWAP1 PUSH2 0x13D JUMP JUMPDEST PUSH1 0x40 MLOAD DUP1 SWAP2 SUB SWAP1 RETURN JUMPDEST PUSH2 0x61 PUSH2 0x6C JUMP JUMPDEST STOP JUMPDEST PUSH1 0x0 DUP1 SLOAD SWAP1 POP SWAP1 JUMP JUMPDEST PUSH2 0x141 PUSH1 0x0 SSTORE PUSH1 0x0 CALLER PUSH20 0xFFFFFFFFFFFFFFFFFFFFFFFFFFFFFFFFFFFFFFFF AND PUSH1 0x40 MLOAD PUSH2 0x97 SWAP1 PUSH2 0x189 JUMP JUMPDEST PUSH1 0x0 PUSH1 0x40 MLOAD DUP1 DUP4 SUB DUP2 PUSH1 0x0 DUP7 GAS CALL SWAP2 POP POP RETURNDATASIZE DUP1 PUSH1 0x0 DUP2 EQ PUSH2 0xD4 JUMPI PUSH1 0x40 MLOAD SWAP2 POP PUSH1 0x1F NOT PUSH1 0x3F RETURNDATASIZE ADD AND DUP3 ADD PUSH1 0x40 MSTORE RETURNDATASIZE DUP3 MSTORE RETURNDATASIZE PUSH1 0x0 PUSH1 0x20 DUP5 ADD RETURNDATACOPY PUSH2 0xD9 JUMP JUMPDEST PUSH1 0x60 SWAP2 POP JUMPDEST POP POP SWAP1 POP DUP1 PUSH2 0x11D JUMPI PUSH1 0x40 MLOAD PUSH32 0x8C379A000000000000000000000000000000000000000000000000000000000 DUP2 MSTORE PUSH1 0x4 ADD PUSH2 0x114 SWAP1 PUSH2 0x1FB JUMP JUMPDEST PUSH1 0x40 MLOAD DUP1 SWAP2 SUB SWAP1 REVERT JUMPDEST PUSH1 0x0 DUP1 SSTORE POP JUMP JUMPDEST PUSH1 0x0 DUP2 SWAP1 POP SWAP2 SWAP1 POP JUMP JUMPDEST PUSH2 0x137 DUP2 PUSH2 0x124 JUMP JUMPDEST DUP3 MSTORE POP POP JUMP JUMPDEST PUSH1 0x0 PUSH1 0x20 DUP3 ADD SWAP1 POP PUSH2 0x152 PUSH1 0x0 DUP4 ADD DUP5 PUSH2 0x12E JUMP JUMPDEST SWAP3 SWAP2 POP POP JUMP JUMPDEST PUSH1 0x0 DUP2 SWAP1 POP SWAP3 SWAP2 POP POP JUMP JUMPDEST POP JUMP JUMPDEST PUSH1 0x0 PUSH2 0x173 PUSH1 0x0 DUP4 PUSH2 0x158 JUMP JUMPDEST SWAP2 POP PUSH2 0x17E DUP3 PUSH2 0x163 JUMP JUMPDEST PUSH1 0x0 DUP3 ADD SWAP1 POP SWAP2 SWAP1 POP JUMP JUMPDEST PUSH1 0x0 PUSH2 0x194 DUP3 PUSH2 0x166 JUMP JUMPDEST SWAP2 POP DUP2 SWAP1 POP SWAP2 SWAP1 POP JUMP JUMPDEST PUSH1 0x0 DUP3 DUP3 MSTORE PUSH1 0x20 DUP3 ADD SWAP1 POP SWAP3 SWAP2 POP POP JUMP JUMPDEST PUSH32 0x43616C6C206661696C6564000000000000000000000000000000000000000000 PUSH1 0x0 DUP3 ADD MSTORE POP JUMP JUMPDEST PUSH1 0x0 PUSH2 0x1E5 PUSH1 0xB DUP4 PUSH2 0x19E JUMP JUMPDEST SWAP2 POP PUSH2 0x1F0 DUP3 PUSH2 0x1AF JUMP JUMPDEST PUSH1 0x20 DUP3 ADD SWAP1 POP SWAP2 SWAP1 POP JUMP JUMPDEST PUSH1 0x0 PUSH1 0x20 DUP3 ADD SWAP1 POP DUP2 DUP2 SUB PUSH1 0x0 DUP4 ADD MSTORE PUSH2 0x214 DUP2 PUSH2 0x1D8 JUMP JUMPDEST SWAP1 POP SWAP2 SWAP1 POP JUMP INVALID LOG2 PUSH5 0x6970667358 0x22 SLT KECCAK256 BLOBHASH SHR 0x4B SELFBALANCE 0xCE PUSH2 0xA4DC 0xD4 0xCB SWAP15 0xBF CREATE RETURNCONTRACT 0xE4 EXP PUSH24 0x447138422F5E81475FF2D72C0D677264736F6C634300081E STOP CALLER "
				},
				"gasEstimates": {
					"creation": {
						"codeDepositCost": "118600",
						"executionCost": "165",
						"totalCost": "118765"
					},
					"external": {
						"test()": "infinite",
						"val()": "2415"
					}
				},
				"methodIdentifiers": {
					"test()": "f8a8fd6d",
					"val()": "3c6bb436"
				}
			},
			"storageLayout": {
				"storage": [],
				"types": null
			},
			"userdoc": {
				"kind": "user",
				"methods": {},
				"version": 1
			}
		}
	}
}