{
	"TransientStorage.sol": {
		"Callback": {
			"abi": [
				{
					"stateMutability": "nonpayable",
					"type": "fallback"
				},
				{
					"inputs": [
						{
							"internalType": "address",
							"name": "target",
							"type": "address"
						}
					],
					"name": "test",
					"outputs": [],
					"stateMutability": "nonpayable",
					"type": "function"
				},
				{
					"inputs": [],
					"name": "val",
					"outputs": [
						{
							"internalType": "uint256",
							"name": "",
							"type": "uint256"
						}
					],
					"stateMutability": "view",
					"type": "function"
				}
			],
			"devdoc": {
				"kind": "dev",
				"methods": {},
				"version": 1
			},
			"evm": {
				"assembly": "    /* \"TransientStorage.sol\":387:642  contract Callback {... */\n  mstore(0x40, 0x80)\n  callvalue\n  dup1\n  iszero\n  tag_1\n  jumpi\n  0x00\n  dup1\n  revert\ntag_1:\n  pop\n  dataSize(sub_0)\n  dup1\n  dataOffset(sub_0)\n  0x00\n  codecopy\n  0x00\n  return\nstop\n\nsub_0: assembly {\n        /* \"TransientStorage.sol\":387:642  contract Callback {... */\n      mstore(0x40, 0x80)\n      callvalue\n      dup1\n      iszero\n      tag_1\n      jumpi\n      0x00\n      dup1\n      revert\n    tag_1:\n      pop\n      jumpi(tag_2, lt(calldatasize, 0x04))\n      shr(0xe0, calldataload(0x00))\n      dup1\n      0x3c6bb436\n      eq\n      tag_4\n      jumpi\n      dup1\n      0xbb29998e\n      eq\n      tag_5\n      jumpi\n      jump(tag_3)\n    tag_2:\n    tag_3:\n        /* \"TransientStorage.sol\":503:504  0 */\n      0x00\n        /* \"TransientStorage.sol\":478:488  msg.sender */\n      caller\n        /* \"TransientStorage.sol\":478:500  msg.sender.code.length */\n      0xffffffffffffffffffffffffffffffffffffffff\n      and\n      extcodesize\n        /* \"TransientStorage.sol\":478:504  msg.sender.code.length > 0 */\n      gt\n        /* \"TransientStorage.sol\":470:505  require(msg.sender.code.length > 0) */\n      tag_8\n      jumpi\n      0x00\n      dup1\n      revert\n    tag_8:\n        /* \"TransientStorage.sol\":528:538  msg.sender */\n      caller\n        /* \"TransientStorage.sol\":522:543  ITest(msg.sender).val */\n      0xffffffffffffffffffffffffffffffffffffffff\n      and\n      0x3c6bb436\n        /* \"TransientStorage.sol\":522:545  ITest(msg.sender).val() */\n      mload(0x40)\n      dup2\n      0xffffffff\n      and\n      0xe0\n      shl\n      dup2\n      mstore\n      0x04\n      add\n      0x20\n      mload(0x40)\n      dup1\n      dup4\n      sub\n      dup2\n      dup7\n      gas\n      staticcall\n      iszero\n      dup1\n      iszero\n      tag_10\n      jumpi\n      returndatasize\n      0x00\n      dup1\n      returndatacopy\n      revert(0x00, returndatasize)\n    tag_10:\n      pop\n      pop\n      pop\n      pop\n      mload(0x40)\n      returndatasize\n      not(0x1f)\n      0x1f\n      dup3\n      add\n      and\n      dup3\n      add\n      dup1\n      0x40\n      mstore\n      pop\n      dup2\n      add\n      swap1\n      tag_11\n      swap2\n      swap1\n      tag_12\n      jump\t// in\n    tag_11:\n        /* \"TransientStorage.sol\":516:519  val */\n      0x00\n        /* \"TransientStorage.sol\":516:545  val = ITest(msg.sender).val() */\n      dup2\n      swap1\n      sstore\n      stop\n        /* \"TransientStorage.sol\":412:430  uint256 public val */\n    tag_4:\n      tag_13\n      tag_14\n      jump\t// in\n    tag_13:\n      mload(0x40)\n      tag_15\n      swap2\n      swap1\n      tag_16\n      jump\t// in\n    tag_15:\n      mload(0x40)\n      dup1\n      swap2\n      sub\n      swap1\n      return\n        /* \"TransientStorage.sol\":561:639  function test(address target) external {... */\n    tag_5:\n      tag_17\n      0x04\n      dup1\n      calldatasize\n      sub\n      dup2\n      add\n      swap1\n      tag_18\n      swap2\n      swap1\n      tag_19\n      jump\t// in\n    tag_18:\n      tag_20\n      jump\t// in\n    tag_17:\n      stop\n        /* \"TransientStorage.sol\":412:430  uint256 public val */\n    tag_14:\n      sload(0x00)\n      dup2\n      jump\t// out\n        /* \"TransientStorage.sol\":561:639  function test(address target) external {... */\n    tag_20:\n        /* \"TransientStorage.sol\":617:623  target */\n      dup1\n        /* \"TransientStorage.sol\":611:629  ITest(target).test */\n      0xffffffffffffffffffffffffffffffffffffffff\n      and\n      0xf8a8fd6d\n        /* \"TransientStorage.sol\":611:631  ITest(target).test() */\n      mload(0x40)\n      dup2\n      0xffffffff\n      and\n      0xe0\n      shl\n      dup2\n      mstore\n      0x04\n      add\n      0x00\n      mload(0x40)\n      dup1\n      dup4\n      sub\n      dup2\n      0x00\n      dup8\n      dup1\n      extcodesize\n      iszero\n      dup1\n      iszero\n      tag_22\n      jumpi\n      0x00\n      dup1\n      revert\n    tag_22:\n      pop\n      gas\n      call\n      iszero\n      dup1\n      iszero\n      tag_24\n      jumpi\n      returndatasize\n      0x00\n      dup1\n      returndatacopy\n      revert(0x00, returndatasize)\n    tag_24:\n      pop\n      pop\n      pop\n      pop\n        /* \"TransientStorage.sol\":561:639  function test(address target) external {... */\n      pop\n      jump\t// out\n        /* \"#utility.yul\":88:205   */\n    tag_26:\n        /* \"#utility.yul\":197:198   */\n      0x00\n        /* \"#utility.yul\":194:195   */\n      dup1\n        /* \"#utility.yul\":187:199   */\n      revert\n        /* \"#utility.yul\":334:411   */\n    tag_28:\n        /* \"#utility.yul\":371:378   */\n      0x00\n        /* \"#utility.yul\":400:405   */\n      dup2\n        /* \"#utility.yul\":389:405   */\n      swap1\n      pop\n        /* \"#utility.yul\":334:411   */\n      swap2\n      swap1\n      pop\n      jump\t// out\n        /* \"#utility.yul\":417:539   */\n    tag_29:\n        /* \"#utility.yul\":490:514   */\n      tag_42\n        /* \"#utility.yul\":508:513   */\n      dup2\n        /* \"#utility.yul\":490:514   */\n      tag_28\n      jump\t// in\n    tag_42:\n        /* \"#utility.yul\":483:488   */\n      dup2\n        /* \"#utility.yul\":480:515   */\n      eq\n        /* \"#utility.yul\":470:533   */\n      tag_43\n      jumpi\n        /* \"#utility.yul\":529:530   */\n      0x00\n        /* \"#utility.yul\":526:527   */\n      dup1\n        /* \"#utility.yul\":519:531   */\n      revert\n        /* \"#utility.yul\":470:533   */\n    tag_43:\n        /* \"#utility.yul\":417:539   */\n      pop\n      jump\t// out\n        /* \"#utility.yul\":545:688   */\n    tag_30:\n        /* \"#utility.yul\":602:607   */\n      0x00\n        /* \"#utility.yul\":633:639   */\n      dup2\n        /* \"#utility.yul\":627:640   */\n      mload\n        /* \"#utility.yul\":618:640   */\n      swap1\n      pop\n        /* \"#utility.yul\":649:682   */\n      tag_45\n        /* \"#utility.yul\":676:681   */\n      dup2\n        /* \"#utility.yul\":649:682   */\n      tag_29\n      jump\t// in\n    tag_45:\n        /* \"#utility.yul\":545:688   */\n      swap3\n      swap2\n      pop\n      pop\n      jump\t// out\n        /* \"#utility.yul\":694:1045   */\n    tag_12:\n        /* \"#utility.yul\":764:770   */\n      0x00\n        /* \"#utility.yul\":813:815   */\n      0x20\n        /* \"#utility.yul\":801:810   */\n      dup3\n        /* \"#utility.yul\":792:799   */\n      dup5\n        /* \"#utility.yul\":788:811   */\n      sub\n        /* \"#utility.yul\":784:816   */\n      slt\n        /* \"#utility.yul\":781:900   */\n      iszero\n      tag_47\n      jumpi\n        /* \"#utility.yul\":819:898   */\n      tag_48\n      tag_26\n      jump\t// in\n    tag_48:\n        /* \"#utility.yul\":781:900   */\n    tag_47:\n        /* \"#utility.yul\":939:940   */\n      0x00\n        /* \"#utility.yul\":964:1028   */\n      tag_49\n        /* \"#utility.yul\":1020:1027   */\n      dup5\n        /* \"#utility.yul\":1011:1017   */\n      dup3\n        /* \"#utility.yul\":1000:1009   */\n      dup6\n        /* \"#utility.yul\":996:1018   */\n      add\n        /* \"#utility.yul\":964:1028   */\n      tag_30\n      jump\t// in\n    tag_49:\n        /* \"#utility.yul\":954:1028   */\n      swap2\n      pop\n        /* \"#utility.yul\":910:1038   */\n      pop\n        /* \"#utility.yul\":694:1045   */\n      swap3\n      swap2\n      pop\n      pop\n      jump\t// out\n        /* \"#utility.yul\":1051:1169   */\n    tag_31:\n        /* \"#utility.yul\":1138:1162   */\n      tag_51\n        /* \"#utility.yul\":1156:1161   */\n      dup2\n        /* \"#utility.yul\":1138:1162   */\n      tag_28\n      jump\t// in\n    tag_51:\n        /* \"#utility.yul\":1133:1136   */\n      dup3\n        /* \"#utility.yul\":1126:1163   */\n      mstore\n        /* \"#utility.yul\":1051:1169   */\n      pop\n      pop\n      jump\t// out\n        /* \"#utility.yul\":1175:1397   */\n    tag_16:\n        /* \"#utility.yul\":1268:1272   */\n      0x00\n        /* \"#utility.yul\":1306:1308   */\n      0x20\n        /* \"#utility.yul\":1295:1304   */\n      dup3\n        /* \"#utility.yul\":1291:1309   */\n      add\n        /* \"#utility.yul\":1283:1309   */\n      swap1\n      pop\n        /* \"#utility.yul\":1319:1390   */\n      tag_53\n        /* \"#utility.yul\":1387:1388   */\n      0x00\n        /* \"#utility.yul\":1376:1385   */\n      dup4\n        /* \"#utility.yul\":1372:1389   */\n      add\n        /* \"#utility.yul\":1363:1369   */\n      dup5\n        /* \"#utility.yul\":1319:1390   */\n      tag_31\n      jump\t// in\n    tag_53:\n        /* \"#utility.yul\":1175:1397   */\n      swap3\n      swap2\n      pop\n      pop\n      jump\t// out\n        /* \"#utility.yul\":1403:1529   */\n    tag_32:\n        /* \"#utility.yul\":1440:1447   */\n      0x00\n        /* \"#utility.yul\":1480:1522   */\n      0xffffffffffffffffffffffffffffffffffffffff\n        /* \"#utility.yul\":1473:1478   */\n      dup3\n        /* \"#utility.yul\":1469:1523   */\n      and\n        /* \"#utility.yul\":1458:1523   */\n      swap1\n      pop\n        /* \"#utility.yul\":1403:1529   */\n      swap2\n      swap1\n      pop\n      jump\t// out\n        /* \"#utility.yul\":1535:1631   */\n    tag_33:\n        /* \"#utility.yul\":1572:1579   */\n      0x00\n        /* \"#utility.yul\":1601:1625   */\n      tag_56\n        /* \"#utility.yul\":1619:1624   */\n      dup3\n        /* \"#utility.yul\":1601:1625   */\n      tag_32\n      jump\t// in\n    tag_56:\n        /* \"#utility.yul\":1590:1625   */\n      swap1\n      pop\n        /* \"#utility.yul\":1535:1631   */\n      swap2\n      swap1\n      pop\n      jump\t// out\n        /* \"#utility.yul\":1637:1759   */\n    tag_34:\n        /* \"#utility.yul\":1710:1734   */\n      tag_58\n        /* \"#utility.yul\":1728:1733   */\n      dup2\n        /* \"#utility.yul\":1710:1734   */\n      tag_33\n      jump\t// in\n    tag_58:\n        /* \"#utility.yul\":1703:1708   */\n      dup2\n        /* \"#utility.yul\":1700:1735   */\n      eq\n        /* \"#utility.yul\":1690:1753   */\n      tag_59\n      jumpi\n        /* \"#utility.yul\":1749:1750   */\n      0x00\n        /* \"#utility.yul\":1746:1747   */\n      dup1\n        /* \"#utility.yul\":1739:1751   */\n      revert\n        /* \"#utility.yul\":1690:1753   */\n    tag_59:\n        /* \"#utility.yul\":1637:1759   */\n      pop\n      jump\t// out\n        /* \"#utility.yul\":1765:1904   */\n    tag_35:\n        /* \"#utility.yul\":1811:1816   */\n      0x00\n        /* \"#utility.yul\":1849:1855   */\n      dup2\n        /* \"#utility.yul\":1836:1856   */\n      calldataload\n        /* \"#utility.yul\":1827:1856   */\n      swap1\n      pop\n        /* \"#utility.yul\":1865:1898   */\n      tag_61\n        /* \"#utility.yul\":1892:1897   */\n      dup2\n        /* \"#utility.yul\":1865:1898   */\n      tag_34\n      jump\t// in\n    tag_61:\n        /* \"#utility.yul\":1765:1904   */\n      swap3\n      swap2\n      pop\n      pop\n      jump\t// out\n        /* \"#utility.yul\":1910:2239   */\n    tag_19:\n        /* \"#utility.yul\":1969:1975   */\n      0x00\n        /* \"#utility.yul\":2018:2020   */\n      0x20\n        /* \"#utility.yul\":2006:2015   */\n      dup3\n        /* \"#utility.yul\":1997:2004   */\n      dup5\n        /* \"#utility.yul\":1993:2016   */\n      sub\n        /* \"#utility.yul\":1989:2021   */\n      slt\n        /* \"#utility.yul\":1986:2105   */\n      iszero\n      tag_63\n      jumpi\n        /* \"#utility.yul\":2024:2103   */\n      tag_64\n      tag_26\n      jump\t// in\n    tag_64:\n        /* \"#utility.yul\":1986:2105   */\n    tag_63:\n        /* \"#utility.yul\":2144:2145   */\n      0x00\n        /* \"#utility.yul\":2169:2222   */\n      tag_65\n        /* \"#utility.yul\":2214:2221   */\n      dup5\n        /* \"#utility.yul\":2205:2211   */\n      dup3\n        /* \"#utility.yul\":2194:2203   */\n      dup6\n        /* \"#utility.yul\":2190:2212   */\n      add\n        /* \"#utility.yul\":2169:2222   */\n      tag_35\n      jump\t// in\n    tag_65:\n        /* \"#utility.yul\":2159:2222   */\n      swap2\n      pop\n        /* \"#utility.yul\":2115:2232   */\n      pop\n        /* \"#utility.yul\":1910:2239   */\n      swap3\n      swap2\n      pop\n      pop\n      jump\t// out\n\n    auxdata: 0xa264697066735822122018714277f5bfcd7a22cf157be720288ed3f0f110c13f0d6a96a5969266b0c5fa64736f6c634300081e0033\n}\n",
				"bytecode": {
					"linkReferences": {},
					"object": "6080604052348015600f57600080fd5b506102cb8061001f6000396000f3fe608060405234801561001057600080fd5b506004361061003a5760003560e01c80633c6bb436146100d5578063bb29998e146100f35761003b565b5b60003373ffffffffffffffffffffffffffffffffffffffff163b1161005f57600080fd5b3373ffffffffffffffffffffffffffffffffffffffff16633c6bb4366040518163ffffffff1660e01b8152600401602060405180830381865afa1580156100aa573d6000803e3d6000fd5b505050506040513d601f19601f820116820180604052508101906100ce91906101b3565b6000819055005b6100dd61010f565b6040516100ea91906101ef565b60405180910390f35b61010d60048036038101906101089190610268565b610115565b005b60005481565b8073ffffffffffffffffffffffffffffffffffffffff1663f8a8fd6d6040518163ffffffff1660e01b8152600401600060405180830381600087803b15801561015d57600080fd5b505af1158015610171573d6000803e3d6000fd5b5050505050565b600080fd5b6000819050919050565b6101908161017d565b811461019b57600080fd5b50565b6000815190506101ad81610187565b92915050565b6000602082840312156101c9576101c8610178565b5b60006101d78482850161019e565b91505092915050565b6101e98161017d565b82525050565b600060208201905061020460008301846101e0565b92915050565b600073ffffffffffffffffffffffffffffffffffffffff82169050919050565b60006102358261020a565b9050919050565b6102458161022a565b811461025057600080fd5b50565b6000813590506102628161023c565b92915050565b60006020828403121561027e5761027d610178565b5b600061028c84828501610253565b9150509291505056fea264697066735822122018714277f5bfcd7a22cf157be720288ed3f0f110c13f0d6a96a5969266b0c5fa64736f6c634300081e0033",
					"opcodes": "PUSH1 0x80 PUSH1 0x40 MSTORE CALLVALUE DUP1 ISZERO PUSH1 0xF JUMPI PUSH1 0x0 DUP1 REVERT JUMPDEST POP PUSH2 0x2CB DUP1 PUSH2 0x1F PUSH1 0x0 CODECOPY PUSH1 0x0 RETURN INVALID PUSH1 0x80 PUSH1 0x40 MSTORE CALLVALUE DUP1 ISZERO PUSH2 0x10 JUMPI PUSH1 0x0 DUP1 REVERT JUMPDEST POP PUSH1 0x4 CALLDATASIZE LT PUSH2 0x3A JUMPI PUSH1 0x0 CALLDATALOAD PUSH1 0xE0 SHR DUP1 PUSH4 0x3C6BB436 EQ PUSH2 0xD5 JUMPI DUP1 PUSH4 0xBB29998E EQ PUSH2 0xF3 JUMPI PUSH2 0x3B JUMP JUMPDEST JUMPDEST PUSH1 0x0 CALLER PUSH20 0xFFFFFFFFFFFFFFFFFFFFFFFFFFFFFFFFFFFFFFFF AND EXTCODESIZE GT PUSH2 0x5F JUMPI PUSH1 0x0 DUP1 REVERT JUMPDEST CALLER PUSH20 0xFFFFFFFFFFFFFFFFFFFFFFFFFFFFFFFFFFFFFFFF AND PUSH4 0x3C6BB436 PUSH1 0x40 MLOAD DUP2 PUSH4 0xFFFFFFFF AND PUSH1 0xE0 SHL DUP2 MSTORE PUSH1 0x4 ADD PUSH1 0x20 PUSH1 0x40 MLOAD DUP1 DUP4 SUB DUP2 DUP7 GAS STATICCALL ISZERO DUP1 ISZERO PUSH2 0xAA JUMPI RETURNDATASIZE PUSH1 0x0 DUP1 RETURNDATACOPY RETURNDATASIZE PUSH1 0x0 REVERT JUMPDEST POP POP POP POP PUSH1 0x40 MLOAD RETURNDATASIZE PUSH1 0x1F NOT PUSH1 0x1F DUP3 ADD AND DUP3 ADD DUP1 PUSH1 0x40 MSTORE POP DUP2 ADD SWAP1 PUSH2 0xCE SWAP2 SWAP1 PUSH2 0x1B3 JUMP JUMPDEST PUSH1 0x0 DUP2 SWAP1 SSTORE STOP JUMPDEST PUSH2 0xDD PUSH2 0x10F JUMP JUMPDEST PUSH1 0x40 MLOAD PUSH2 0xEA SWAP2 SWAP1 PUSH2 0x1EF JUMP JUMPDEST PUSH1 0x40 MLOAD DUP1 SWAP2 SUB SWAP1 RETURN JUMPDEST PUSH2 0x10D PUSH1 0x4 DUP1 CALLDATASIZE SUB DUP2 ADD SWAP1 PUSH2 0x108 SWAP2 SWAP1 PUSH2 0x268 JUMP JUMPDEST PUSH2 0x115 JUMP JUMPDEST STOP JUMPDEST PUSH1 0x0 SLOAD DUP2 JUMP JUMPDEST DUP1 PUSH20 0xFFFFFFFFFFFFFFFFFFFFFFFFFFFFFFFFFFFFFFFF AND PUSH4 0xF8A8FD6D PUSH1 0x40 MLOAD DUP2 PUSH4 0xFFFFFFFF AND PUSH1 0xE0 SHL DUP2 MSTORE PUSH1 0x4 ADD PUSH1 0x0 PUSH1 0x40 MLOAD DUP1 DUP4 SUB DUP2 PUSH1 0x0 DUP8 DUP1 EXTCODESIZE ISZERO DUP1 ISZERO PUSH2 0x15D JUMPI PUSH1 0x0 DUP1 REVERT JUMPDEST POP GAS CALL ISZERO DUP1 ISZERO PUSH2 0x171 JUMPI RETURNDATASIZE PUSH1 0x0 DUP1 RETURNDATACOPY RETURNDATASIZE PUSH1 0x0 REVERT JUMPDEST POP POP POP POP POP JUMP JUMPDEST PUSH1 0x0 DUP1 REVERT JUMPDEST PUSH1 0x0 DUP2 SWAP1 POP SWAP2 SWAP1 POP JUMP JUMPDEST PUSH2 0x190 DUP2 PUSH2 0x17D JUMP JUMPDEST DUP2 EQ PUSH2 0x19B JUMPI PUSH1 0x0 DUP1 REVERT JUMPDEST POP JUMP JUMPDEST PUSH1 0x0 DUP2 MLOAD SWAP1 POP PUSH2 0x1AD DUP2 PUSH2 0x187 JUMP JUMPDEST SWAP3 SWAP2 POP POP JUMP JUMPDEST PUSH1 0x0 PUSH1 0x20 DUP3 DUP5 SUB SLT ISZERO PUSH2 0x1C9 JUMPI PUSH2 0x1C8 PUSH2 0x178 JUMP JUMPDEST JUMPDEST PUSH1 0x0 PUSH2 0x1D7 DUP5 DUP3 DUP6 ADD PUSH2 0x19E JUMP JUMPDEST SWAP2 POP POP SWAP3 SWAP2 POP POP JUMP JUMPDEST PUSH2 0x1E9 DUP2 PUSH2 0x17D JUMP JUMPDEST DUP3 MSTORE POP POP JUMP JUMPDEST PUSH1 0x0 PUSH1 0x20 DUP3 ADD SWAP1 POP PUSH2 0x204 PUSH1 0x0 DUP4 ADD DUP5 PUSH2 0x1E0 JUMP JUMPDEST SWAP3 SWAP2 POP POP JUMP JUMPDEST PUSH1 0x0 PUSH20 0xFFFFFFFFFFFFFFFFFFFFFFFFFFFFFFFFFFFFFFFF DUP3 AND SWAP1 POP SWAP2 SWAP1 POP JUMP JUMPDEST PUSH1 0x0 PUSH2 0x235 DUP3 PUSH2 0x20A JUMP JUMPDEST SWAP1 POP SWAP2 SWAP1 POP JUMP JUMPDEST PUSH2 0x245 DUP2 PUSH2 0x22A JUMP JUMPDEST DUP2 EQ PUSH2 0x250 JUMPI PUSH1 0x0 DUP1 REVERT JUMPDEST POP JUMP JUMPDEST PUSH1 0x0 DUP2 CALLDATALOAD SWAP1 POP PUSH2 0x262 DUP2 PUSH2 0x23C JUMP JUMPDEST SWAP3 SWAP2 POP POP JUMP JUMPDEST PUSH1 0x0 PUSH1 0x20 DUP3 DUP5 SUB SLT ISZERO PUSH2 0x27E JUMPI PUSH2 0x27D PUSH2 0x178 JUMP JUMPDEST JUMPDEST PUSH1 0x0 PUSH2 0x28C DUP5 DUP3 DUP6 ADD PUSH2 0x253 JUMP JUMPDEST SWAP2 POP POP SWAP3 SWAP2 POP POP JUMP INVALID LOG2 PUSH5 0x6970667358 0x22 SLT KECCAK256 XOR PUSH18 0x4277F5BFCD7A22CF157BE720288ED3F0F110 0xC1 EXTCODEHASH 0xD PUSH11 0x96A5969266B0C5FA64736F PUSH13 0x634300081E0033000000000000 "
				},
				"gasEstimates": {
					"creation": {
						"codeDepositCost": "143000",
						"executionCost": "190",
						"totalCost": "143190"
					},
					"external": {
						"": "infinite",
						"test(address)": "infinite",
						"val()": "2407"
					}
				},
				"methodIdentifiers": {
					"test(address)": "bb29998e",
					"val()": "3c6bb436"
				}
			},
			"storageLayout": {
				"storage": [
					{
						"astId": 12,
						"contract": "TransientStorage.sol:Callback",
						"label": "val",
						"offset": 0,
						"slot": "0",
						"type": "t_uint256"
					}
				],
				"types": {
					"t_uint256": {
						"encoding": "inplace",
						"label": "uint256",
						"numberOfBytes": "32"
					}
				}
			},
			"userdoc": {
				"kind": "user",
				"methods": {},
				"version": 1
			}
		}
	}
}